:100000000C94230A0C94330A0C94330A0C94330A8C
:100010000C94330A0C94330A0C94330A0C94330A6C
:100020000C94330A0C94330A0C94860E0C94330A05
:100030000C94330A0C94330A0C94330A0C94330A4C
:100040000C94330A0C94330A0C94330A0C94330A3C
:100050000C94330A0C94330A0C94330A0C94330A2C
:100060000C94330A0C94330A0C94330A0C94330A1C
:100070000C94330A0C94330A0C94330A0C94330A0C
:100080000C94330A0C94330A0C94330A0C94330AFC
:100090000C94330A0C94330A0C94330A0C94330AEC
:1000A0000C94330A0C94330A0C94330A2403500042
:1000B0004F004B004B0045004E00200043004F0016
:1000C0004E00540052004F004C004C0045005200BE
:1000D00000001C0348004F0052004900200043006C
:1000E0004F002E002C004C00540044002E00000055
:1000F000040309040902290001010080FA0904002F
:10010000000203000000092111010001225600072E
:1001100005020340000807058103400008120100A2
:1001200002000000400D0F920000010102000105D5
:10013000010905A10115002501350045017501954D
:1001400010050919012910810205012507463B0107
:100150007504950165140939814265009501810195
:1001600026FF0046FF0009300931093209357508BC
:10017000950481020600FF0920950181020A2126CB
:1001800095089102C0BBFFAFAE4A48518400D0B67B
:100190006DDB76EFFFFFFFFFFFFFFFFFFFFFFFFFBE
:1001A000FFFFFFBBED77F75EB7FDFFFFFFFF7F7B34
:1001B000FB3775254994AA7BFFFFFFBF6DFBFFFF4F
:1001C000FFFF7FBBFFFFFFFFFFFF6EFFBFFDDDFBFC
:1001D000FFFFFFFFFFFBFFDFDF56C98A246957EDF2
:1001E0006DABEDFDB6AFDAB6DDB6EDFF6D77F7FFBF
:1001F000FFEDFF6DFB6FBF6DFBEFFFFFFF6DB7ED19
:10020000BDAD12519292FA56DB5E5BD77BDDEDFD00
:10021000FBDDF7B6FFBFBFB5DD7FDBB76DBBFBBF57
:10022000D77EFFFFFFFFFFFBF757B5AD6DFFADBBFF
:10023000B6B5DA3ECDB25DAB56BB5E6FDBFAEDDE36
:10024000FBFEBFFEBFFFADF6FEF7FFFFFFFF7FDF48
:100250007FDFEEFBFE6DDFDD6A6BA5B2522BA95688
:10026000AD75B5FDB6D7DEEF6EB7FFB7FB6DFFED31
:10027000BDFDFFFFFFB6EDF7BFFB7BDFB7DB76779A
:10028000CBEE2A65255425D9DAA6EB52DBBEBB7D21
:10029000B7FBEAFFDDFFF7BF77BFFBFFFFFFFFEF15
:1002A000FFBFDDFB7FBFDBAA5D95D58A4822922088
:1002B000115956AB6D69DBEADE6D5FFDFFFFBF7B59
:1002C000EFFBFFFFFFFBFFFDFBDFEE6EED75DB5E7F
:1002D000BB5A951401880005222229DDB6D7B657EE
:1002E0006BDFF7EFFFEFFEDFBD6DDFFFFFFFF6FF18
:1002F000FFFFBBB7DBD656B5D5A52A519200081033
:100300004484909054DA6ABDBDEDFEFFFFFFFFFF0D
:1003100077DFFDFFFFDFFFFFBFBB77DB2A8D886A3A
:100320006B5B44020800208000000049A92AAD6AE6
:10033000EB7BFFFFFFFFFFFFFFFBF7FEFFFDFFFF74
:10034000FFFFAE150000008094AA12880049020148
:100350000000042092D5D2D6B6FEF7FFFFFFFFFFC4
:100360006FB7FEFFFFFFBFFFFFBF112291202409DF
:1003700048442411440000000000400425A45655C0
:10038000DDB7FFFFFFFFFFFFFEDF6FFFFFFFFFFF98
:100390007F5B2209000401502109818000002000B8
:1003A00000000000904AB4AA7BFFFFFFFFFFFFFFA1
:1003B000FFFDFBFFFFFFFFFFFF574A520200400413
:1003C00092902404102202000000002042A822B5CE
:1003D000EDFEFF7F6BFFFFFFFFFFB6FDFFFFFFFF9F
:1003E000FFBF2412902008820022084882000004E7
:1003F0000000000008114D75DBFFFFFF9FD0FFFFDD
:10040000FFBFEDF7FFFFF7FDFFAD442400044110EF
:100410002A454101001091000000000020A5A8AA73
:10042000EDFFFFFFFF05FDFFFF575DFFFFFFFFFF34
:10043000FF5F89480900102291881492240400006B
:1004400000000080449244DDFEFFFFFFFFAB6AFF27
:10045000DFDAB2DAFFFFFFFFFF2F4912409084443A
:10046000441222208040220400000000884852B339
:10047000FFFFFFFFFF57D2F67F3765FBFFFFFFFF50
:10048000FFBF2424020120482A69440509080821E5
:10049000000000001002A9F6FFFF9FFBFF0F55BBF5
:1004A000ED2549B5FFFFFFFFFF5F8944102455B3D9
:1004B0005245894810410008000000002291A4ED37
:1004C000FBFF1FDEFE2FA9FE5FAA946AFFFFFFFF5E
:1004D000FF3F110921D24A4DAD9A32224284A480B5
:1004E000000000008808486DF5FFFFFDFF5EDAB5EB
:1004F000B51222D4FDFFFFFFFF7FA2344A95BDFB5A
:10050000DB6A258984100025000000000020B5BBAF
:10051000FAFBFFFFFDAFD67F4B4940A9FFFFFFFF6E
:10052000FFBF44A2B4FBF7565B57CD14284012001E
:10053000020000002985A45670DFFFBFDF5FB5D63B
:100540004A841412EDFFFFFFFF77496DEFFF0E00A5
:1005500000A89AA2410A20921000000080005225B3
:10056000E97FFBEFFFAD7DAB2A1282A0FAFFFFFF10
:10057000FFFF94F6FF0508030000504D0A210921F2
:10058000040000001090A889C2F76F7BBBF6D65418
:1005900045212025DDFFFFFFFFFFEAFD5BEAFFFFAE
:1005A0007F00809454840000010000000400401289
:1005B000A4FFBDDD55AD09492A840448F2FFFFFFC1
:1005C000FFFFF7BFD2FFFFFFFF3F04A824099224DB
:1005D00008000000800482042909920092104992C8
:1005E00044029090A4FFFFFFFFFF7DFFFFFFFFFF8E
:1005F000FFFF174089500080400000000020106875
:100600001200000048229224115002096DFFFFFFE2
:10061000FFFFFFFBFFFFFFFF03DAFF011281240052
:10062000120000002000000000400055224504494F
:100630002201202051FFFFFFFFFFFFFFFFFFFFFF11
:100640000F80FE2F200A0009000000000000820039
:10065000000048001088289208080449CAFFFFFFDC
:10066000FFFF6FFFFFFFFFFFFF0000DD46200200DE
:1006700004000000001100000000008084105104FC
:100680000040208424FFFFFFFFFFFFFFFFFFFFFF6D
:10069000FF0120B28D00008020000000000000005B
:1006A000000000494022822000018210A9FFFFFFC4
:1006B000FFFFFFFFFFFF1FFEFF0542D43A050000CA
:1006C000000000000080000000001000124408023A
:1006D0000000104844FFFFFFFFFFFF7FFFFF3FBF09
:1006E000DD060022550000000001000000040800A3
:1006F00000000004000000002010008128FFFFFF20
:10070000FFFFFFFFFDFFFFFD7F4388008200000029
:100710000000000000008000000080208000000039
:100720000080442451FFFFFFFFFFFFAFFFFFFFFFEB
:10073000FF07224908000000000000000020000020
:10074000004004000000000000002008A2FFFFFF9E
:10075000FFFFFF5FFEDFFEAFED0E40240100000053
:10076000000000000000110800020000000000006E
:100770000008002185FFFFFFFFFFFFBAFABFFFFB64
:10078000BF550900000000000000000000000080CC
:1007900040000000000000000080044458FFFFFFFC
:1007A000FFFFFFD7FDFF55F7EE220200000000001B
:1007B0002000000000008000080000000000000091
:1007C0000000901021FFFFFFFFFF6FBFD2FEFF5E12
:1007D000110A0000000000000000000000001204E8
:1007E00000000000000000000000008284FFFFFF06
:1007F000FFFFFFEDAF492A010200000000000000EA
:1008000000000000000000200000000000000000C8
:100810000022494828FFFFFFFFFFBD5B7B970420B4
:10082000240080000000000009000000000080009B
:1008300001000000000000000000001051FFFFFF59
:10084000FFFFEFB6D65ADB4A000010000000002080
:10085000400200000000000008000000000000004E
:100860000000800282FFFFFFFFBF7F6B2921000095
:10087000014902000000000000000000000000121A
:1008800000000000000000000000129024FFFFFFA5
:10089000FFFFAA94924412242400000000000002EA
:1008A0001100000000002080400000000000000057
:1008B0000000004448FFFFFFFFFF574B4A8AA48017
:1008C000882401000000402000010000000000001A
:1008D00012040000000000000020400082FFFFFF23
:1008E000FF5F5B3229110149100100000000000088
:1008F00004000000000000240000000000000000D0
:100900000000094994FFFFFFFFBF8A4492244A1266
:100910000500000000000808910800000000000029
:1009200009000000000000000002008020FFFFFF1F
:10093000FFEF9288445224040000000000000000F1
:100940000040000000000000200100000000000046
:100950000000800802FFFFFFFF5F2500008000000D
:10096000000000000000004148020000000000807C
:10097000002401000000000000001010A9FFFFFF8C
:10098000FF3B010200080000000000000000000022
:100990000208000000000000A400000000000000A9
:1009A0004040024140FFFFFFFFAF04000000000095
:1009B0000000000000002024904000000000000023
:1009C00000120800000000000000000412FFFFFFFA
:1009D000FF571200000000000000000000000000AF
:1009E0004102020000000000404042000000000000
:1009F0000008902044FFFFFFFF2E010000000000D0
:100A000000000000000000021224000000000000AE
:100A100000040012020000000000028020FFFFFF1F
:100A2000FFB508000000000000000000000000907A
:100A30008800000000000000009008401001000045
:100A40000040000912FFFFFFFF9640000000000079
:100A5000000000000000404020890000000000006D
:100A600080002201000000002202481041FFFFFF29
:100A7000FF2D050000000000000000000000000243
:100A800012220000000000000022004A922489087F
:100A90000000004248FFFFFFBF55000000000000BB
:100AA00000000000000000485200040000000000A8
:100AB00000484910210000400090842092FFFFFF71
:100AC000FFAE120000000000000000000000002047
:100AD000841500000000000020002200844A02006B
:100AE0004000100449FFFFFF7F2B010000000000C1
:100AF0000000000000000011294242000000000038
:100B0000802A904A121028010222429290FFFFFF91
:100B1000BF5500000000000000000000000000843D
:100B200040080000000000000851059120A10412B7
:100B30000810212025FFFFFFFF9612000000000093
:100B400000000000000040202449040000000000D4
:100B5000208A2802000A214040040845CAFFFFFFFE
:100B60005F290100000000000000000000000009F3
:100B700011212104000000005125D52A49404409D3
:100B80000142428890FFFFFFBF15000000000000F7
:100B9000000000000000004280040000000000206F
:100BA00084B4251500101222242024296DFFFFFF94
:100BB0007F4B12010000000000000000000020092F
:100BC0004A5492900000000452ED7E430001201030
:100BD0004292885249FFFFFF5F22000000000000A0
:100BE0000000000000004050108204019284884000
:100BF00052DBD58A24884445080111C9B6FFFFFF9E
:100C0000DF040100000000000000000000009082EE
:100C10008408104A24104048AABE9B1400000822F1
:100C20009154AA946AFFFFFFBF95000000000000E6
:100C30000000000000000015215049A488222592E0
:100C4000F4B56E23804020084248426AD5FFFFFF7A
:100C50002F224810000000000000000000002028A3
:100C60001281A408114992A4956BB54412044191D4
:100C7000248294555BFFFFFF7F0904000000000001
:100C8000000000000000C042840C1053AB24492D2A
:100C9000BBD64A1200200422899428AAB6FFFFFF7F
:100CA0005F4100020000000000000000000000ADF5
:100CB00012B1D5EE56955A696A9524018000280430
:100CC00010215175D5FFFFFFAF1201000000000099
:100CD000000000000000005AA9A4EEFFFFB6D5D620
:100CE000D52A1180049240A852448AAA29FFFFFF06
:100CF0003F0924000000000000000000000000A5E3
:100D00004ADBFFFFFF5FAB9A2E0102042000814403
:100D100022125255A6FFFFFF6FA2801000000000B4
:100D200000000000000000B8B57ABD6DB5FFB6B593
:100D3000294940100049140284A0A4AA48FFFFFFDB
:100D40005F0902040000000000000000000000D065
:100D500056A565DB6EA95A6B4500008008102291EC
:100D600028452455A9FFFFFFB72448800000000054
:100D700000000000000000A0BBADD6AA494BA54A68
:100D80008A001201408248924408499552FFFFFFB1
:100D9000AF5001004400000000000000000000000F
:100DA000EDDE9A1495F6DEAC10240008802455255B
:100DB0001191542A95FFFFFF5F0B9224001200004F
:100DC0000000000080080000004120A9A8885225EA
:100DD000010000401210A24A2222A95A68FFFFFF18
:100DE000B7240800008024890000004004000200AD
:100DF00048080502412421020200420020495455BE
:100E00004A0442A5A5FFFFFF7FA5419224000000F0
:100E100024020004000000200020900000000410C4
:100E20004000001209A16AAF8448242A55FFFFFF41
:100E3000AF090A000001000000204400000000018A
:100E4000020200200400800000000080204AD55BE0
:100E500011814855EAFFFFFFDFB6A4241148922410
:100E6000000000209220000000000100002200008D
:100E70000020244952556AAF4A08916455FFFFFF8C
:100E80007FA5104942000080248900010004200051
:100E9000000000000000080000048124CDDAFDBF3E
:100EA0000410449AAAFFFFFFB79B250088922409EB
:100EB0000000248400000100400000000000000049
:100EC000004028D9BAEDFF57914222B56DFFFFFFD0
:100ED000FF56AAAA24084290444400105222080453
:100EE00000200800000000004092D6B6777FFFADDA
:100EF00012004852DBFFFFFFFF6D554911211142DF
:100F0000121149210800802001008000000000002B
:100F100012ADB56FDBFFDF36499444AA52FFFFFFE5
:100F2000DFDB8A244A4A242520002042214902008E
:100F30001004000000000052C8547BFBFEFEAF927C
:100F4000804090766FFFFFFF7FB76D55A5A4928814
:100F500092A4048C4404480000000008000040886B
:100F6000B5F6D6DD65FB5B250A0222C9ACFFFFFFA3
:100F7000FFDB56A994244952421252110A2201124F
:100F800000800400000092524ADB5B5BDAFF958828
:100F90005048445A73FFFFFFFFBFAD962A4B92247F
:100FA0002940205251001080440040008048556D77
:100FB000555225AAA57F2B42048148B5EDFFFFFFBE
:100FC0007FDB6D6BD5545525452585244955420455
:100FD000001200902A55AA9588204A91C8FF421015
:100FE00000089264DBFFFFFFFF7FDB542B952A494B
:100FF000920852952A2209210000094954A5B52BCF
:1010000001889024E5AF1401495224DBB6FFFFFFAD
:10101000FFF7B75B52ABA42A0952886A55121080B9
:10102000542450A6D55A4212000002D2FE6D092463
:101030002080C85AFBFFFFFFFFAF6EADAD484944AB
:10104000A4803255A9D5A2148048EB7A2B0108045C
:10105000000028F9FE9B2200010929B56DFFFFFF62
:10106000FFFF6D5592921249121565DB564A4DA24B
:101070002AABADDD4A8880000040A0FEBF56440286
:10108000445052DBFEFFFFFFFFFFADAA2A55A42408
:10109000414888B6BBAD5A5B77775B6B05000000B3
:1010A000008046FF77B504481082D46ADBFFFFFF5B
:1010B000FFDFDB55554A1291244252FFFFFFF7FD37
:1010C000EEBEA5A4100100008054FFFFAD4B2981A6
:1010D00080942ADDFDFFFFFFFFFF5EAB92244902F3
:1010E000122149FAFFFFBFB7DD6D95040100000032
:1010F00008EAFFBF6D9500104A28D5B6FFFFFFFF35
:10110000FFFFB75665492254800890D5FEFFFDDFEA
:10111000ABB54A48120080ECF6FFFFDFD65A4A0012
:101120001041AA6DFBFFFFFFFFFFFF5A2A93448285
:101130002480240AB5FF6FFB55DA89102449B2FFD9
:10114000FFFFFF6B5BA50449425655DBFFFFFFFF26
:10115000FFFF6DAB552A891002124250A0EDFFFF30
:1011600027F957A2BAD2FEFFFFFFB7ADAA4D1080F4
:1011700024A8BAFDFFFFFFFFFFDF6FB7AA241149C4
:101180001040902205B4FFFFDFF6FFFFFFFFFFFFD7
:10119000FFBF6DDBB62A49124825E5B6FFFFFFFF0A
:1011A000FFFFBF6D554B2A02410408049290F4FFE3
:1011B000FFFFFFFFFFFFFFDFFED5DEB6D52681A4D0
:1011C00092CADEEFFFFFFFFFFFFF76ABADB4521018
:1011D0000882404800494AF6FFFFFFFFFFFFB7B50E
:1011E000446AB34A6D9514402459B5FEFFFFFFFFD2
:1011F000FFFFEFB6AA554523011082202080D42A94
:10120000B56DFF7FFFB77EC9BDAF56B55A492215F0
:1012100049A5DBFDFFFFFFFFFFFF7F5B55AB9A4456
:1012200024010805091292D6AAAA48D5C0AAA02E60
:101230006B55A96DAB1249A2AADAEEF7FFFFFFFFCB
:10124000FFFFDDB75B5A550A42882000004024A901
:101250006DD5B5AA5FDDDF7655A9AA4A6D25904800
:1012600054B5BDFFFFFFFFFFFFFFFF6EB5D5AAB46A
:1012700010000028418448529536AB5DBB2B55A920
:10128000AA5655B595540595A5B6EDDE7EFFFFFF30
:10129000FFFFFFBDCDB66D4922499204041192AC07
:1012A0006A6D556552B5AA56ABA46ADB2A89AA2491
:1012B000596DF7FFFFFFFFFFFFFFDFF7B62A9B9394
:1012C0008410004008004122D5D2DAAA956411A901
:1012D000542D952AA512506AD6DABFFDEFFFFFFF05
:1012E000FFFFFF6F6F75B55615822421A124089169
:1012F0009436AB56AA0AA5A44A696DD514A945C966
:10130000AAF7FAF75FFFFFFFFFFFFFFDDDD766A932
:10131000A824000404492224296D6DB552A9544A19
:101320009592D29648442A9556BD6FBF95FFFFFF10
:10133000FFFFFFBFBBDAAEAD2609491090904442D3
:1013400052C95AAB2D5549B56A6D9B24A512A46AA2
:10135000B5EDFDFD2AFFFFFFFFFFFFFFEFADB56D10
:1013600055928440220589488294D25AD5AA96AAD9
:10137000AAAA364912A94992EADEEFAB24FFFFFF81
:10138000FFFFFFFF7F7FDB5AAB242002043212896C
:10139000944825D5AA55B5555555A152924492D495
:1013A000D67B3B57A5FFFFFFFFFFFF7FFB6BBB6DAE
:1013B00055A5054990A0A424298994245BDB6A6D76
:1013C000ABAD4A4A2949522DADEDFF2449FFFFFF3D
:1013D000FFFFFFFFDFDFB6DBB64A2A10414A499222
:1013E00040122229A9B456AB5A129524459224D111
:1013F0007ABF6D4992FFFFFFFFFFFFFFFFFE6FB750
:101400006B35900212102A4996642491444AA954DB
:1014100091A490944892A4AAD2FB9E4A20FFFFFF79
:10142000FFFFFFFFFFB7FD7EDDD6254988445292BE
:101430004882924492249592A44A2A4992241255B1
:10144000BDED2B11020011241FBECFEFDAE0DEBF8D
:10145000CDBF21E0A0E0B1E001C01D92A232B207F1
:10146000E1F7D3D1BCC60C94000084B7877F84BF5A
:101470000FB6F894A8958091600088618093600011
:10148000109260000FBE90E080E80FB6F894809351
:101490006100909361000FBE1CC40895089542E35B
:1014A00060EC82E04FD342E361EC81E04BC30895EE
:1014B000FC01809102019091030164E070E068D624
:1014C000029714F046E001C042E0209108013091FB
:1014D0000901223882E0380744F5C90162E070E072
:1014E00057D6019711F4428309C0C9018370992727
:1014F000892B19F484E0828301C01282203882E0B3
:10150000380711F488E009C02F3782E0380721F04E
:10151000213882E0380711F484E082832F5F3F4F47
:101520003093090120930801089510920901109247
:1015300008010895CF93DF93DC0198E0FD01392F76
:1015400011923A95E9F780E813968C9313971496C5
:101550008C93149715968C93159716968C931697D3
:1015600012969C93129780910A0190910B01181684
:1015700019066CF488E0EDE0F1E001900D928A9597
:10158000E1F780910A0190910B010197F3C0ED0101
:1015900080910C01823009F458C028F4882361F04E
:1015A000813029F188C0843009F47AC008F458C029
:1015B000853009F4E3C07FC0809108019091090152
:1015C0008F33910534F0109209011092080181E0E7
:1015D00022C08F7E8F30910521F4888199818063AC
:1015E00028C08E9741F588819981846022C08091BE
:1015F0000801909109018E37910584F0109209013C
:10160000109208011092050110920401109203013A
:101610001092020182E080930C014DC01B821C825B
:101620008E32910519F08D35910529F488819981C3
:1016300091609983888380910801909109010196B6
:10164000909309018093080136C0CD0131DF80916C
:10165000020190910301883791056CF185E0DBCFA1
:1016600080910401909105012091020130910301C4
:10167000009739F4C90162E070E08AD5019741F41E
:1016800005C08F33914021F420FD02C084E005C0E5
:1016900020FD02C082E001C086E08A8384E0BBCFE7
:1016A00083E080930C0180910201909103018837BF
:1016B0009105A4F608C080910C01823008F450C056
:1016C000853009F44DC02A81809104019091050173
:1016D000223011F4019603C0263031F40197909323
:1016E0000501809304010FC08091020190910301D4
:1016F000211102C0019703C0243029F40196909370
:1017000003018093020180910401909105012091D1
:1017100002013091030148E2429FF001439FF00D26
:1017200011249C0197FF02C0295F3F4F43E035958C
:1017300027954A95E1F7E20FF31FEB57FE4FE4912F
:10174000F0E068E070E024D502C0F595E7958A9551
:10175000E2F7E0FF05C088819981846099838883DE
:1017600088E0FE01ADE0B1E001900D928A95E1F7CD
:1017700084E090E090930B0180930A01DF91CF9178
:101780000895CF93DF93CDB7DEB728970FB6F894BF
:10179000DEBF0FBECDBF80911901843069F582E0B4
:1017A0008093E9008091E80082FF10C08091E800FA
:1017B00085FF07C040E050E067E070E0CE01019691
:1017C000B4D08091E8008B778093E80081E080932B
:1017D000E9008091E80080FF0FC0CE010196AADEEB
:1017E00040E050E068E070E0CE01019654D0809176
:1017F000E8008E778093E80028960FB6F894DEBF55
:101800000FBECDBFDF91CF9108952FDE7894B9DF61
:10181000A5D4FDCF292F332723303105E1F058F42B
:101820002130310599F02230310569F589E290E0E7
:1018300024EF30E02CC02132310501F12232310594
:1018400011F586E590E02FE231E021C082E190E0E1
:101850002DE131E01CC099278130910549F028F035
:10186000029789F4ECEAF0E005C0E0EFF0E002C096
:10187000E2EDF0E0849190E09F0109C089E090E002
:1018800026E031E004C080E090E020E030E0FA01A2
:10189000318320830895CF92DF92EF92FF920F93CE
:1018A0001F93CF93DF93EC018B017A019FD18111BC
:1018B00033C0E114F10439F0F70180819181081BF4
:1018C000190BC80FD91FC12CD12C0115110519F105
:1018D0008091E80085FD16C08091E8008E778093A6
:1018E000E8003CD4E114F10449F0F70180819181D2
:1018F000C80ED91ED182C08285E00EC077D1882360
:1019000021F30AC089918093F10001501109FFEF82
:10191000CF1ADF0ADACF80E0DF91CF911F910F91CC
:10192000FF90EF90DF90CF900895CF92DF92EF92EB
:10193000FF920F931F93CF93DF93EC018B017A01FA
:1019400055D1811133C0E114F10439F0F7018081E0
:101950009181081B190BC80FD91FC12CD12C01155F
:10196000110519F18091E80085FD16C08091E8000D
:101970008B778093E800F2D3E114F10449F0F7018A
:1019800080819181C80ED91ED182C08285E00EC0AF
:101990002DD1882321F30AC08091F1008993015051
:1019A0001109FFEFCF1ADF0ADACF80E0DF91CF9184
:1019B0001F910F91FF90EF90DF90CF9008952091AD
:1019C0002001309121012617370748F06115710574
:1019D00039F42091E8002E772093E80001C0B90186
:1019E000FC0120E06115710591F1809119018823B6
:1019F00009F440C0853009F43FC08091E80083FDC0
:101A00003DC08091E80082FD2FC08091E80080FFFA
:101A1000E9CF2091F3008091F20090E0922B6115C4
:101A2000710551F08034910538F421912093F10033
:101A3000615071090196F3CF21E08034910509F0DE
:101A400020E08091E8008E778093E800CBCF2111D1
:101A5000CCCF0AC080911901882361F0853061F0F4
:101A60008091E80083FD0AC08091E80082FFF2CFF8
:101A700080E0089582E0089583E0089581E008956C
:101A800020912001309121012617370748F0611578
:101A9000710539F42091E8002E772093E80001C009
:101AA000B901FC0120E06115710599F180911901DE
:101AB000882309F441C0853009F440C08091E800D2
:101AC00083FD3EC08091E80082FD30C08091E80037
:101AD00080FFE9CF2091F3008091F20090E0922BFB
:101AE0006115710559F08034910540F424912093DB
:101AF000F1003196615071090196F2CF21E08034F6
:101B0000910509F020E08091E8008E778093E8004D
:101B1000CACF2111CBCF0AC080911901882361F06F
:101B2000853061F08091E80083FD0AC08091E80073
:101B300082FFF2CF80E0089582E0089583E0089567
:101B400081E00895982F973068F59093E9009817F1
:101B500039F07091EC002091ED005091F00003C03D
:101B6000242F762F50E021FD02C09F5FECCF3091F3
:101B7000EB003E7F3093EB003091ED003D7F3093E2
:101B8000ED003091EB0031603093EB007093EC008E
:101B90002093ED005093F0002091EE0027FDE5CF5B
:101BA00080E008958F708093E90081E0089580912E
:101BB0001A0187FF11C08091E80082FD05C0809165
:101BC00019018111F8CF11C08091E8008B770BC00B
:101BD00080911901882349F08091E80080FFF8CFB7
:101BE0008091E8008E778093E80008952091E400CA
:101BF0003091E50095E64091EC00842F817040FF24
:101C000023C08091E80080FD1DC0809119018823C8
:101C100099F0853099F08091EB0085FD11C04091DD
:101C2000E4005091E5002417350729F3915011F095
:101C30009A01E1CF84E0089582E0089583E0089559
:101C400081E0089580E008954091E80042FFDDCFF3
:101C500008950F931F93CF93DF934BD052D0C8EDCD
:101C6000D0E088818F7788838881806888838881A5
:101C70008F7D888319BC1092190110921501109262
:101C800017011092160100EE10E0F80180818B7FA1
:101C9000808388818160888342E360E080E052DF56
:101CA000E1EEF0E080818E7F8083E2EEF0E08081E3
:101CB00081608083808188608083F80180818E7F4D
:101CC0008083888180618883DF91CF911F910F91FC
:101CD0000895E8EDF0E080818F7E8083E7EDF0E00D
:101CE00080818160808384E082BF81E080931801DD
:101CF000B0CFE8EDF0E080818E7F80831092E2002B
:101D000008951092DA001092E10008951F920F9248
:101D10000FB60F9211242F933F934F935F936F93BE
:101D20007F938F939F93AF93BF93EF93FF93809194
:101D3000E10082FF0AC08091E20082FF06C080912C
:101D4000E1008B7F8093E10008D28091DA0080FF70
:101D50001DC08091D80080FF19C08091DA008E7F6D
:101D60008093DA008091D90080FF0CC080E189BDAA
:101D700082E189BD09B400FEFDCF81E080931901A5
:101D80008CDB04C019BC1092190188DB8091E10042
:101D900080FF18C08091E20080FF14C08091E200B3
:101DA0008E7F8093E2008091E20080618093E20068
:101DB0008091D80080628093D80019BC85E0809320
:101DC0001901CBD18091E10084FF2FC08091E20006
:101DD00084FF2BC080E189BD82E189BD09B400FE8A
:101DE000FDCF8091D8008F7D8093D8008091E10055
:101DF0008F7E8093E1008091E2008F7E8093E200ED
:101E00008091E20081608093E20080911501882337
:101E100011F084E007C08091E30087FD02C081E0FB
:101E200001C083E08093190198D18091E10083FF84
:101E300022C08091E20083FF1EC08091E100877F75
:101E40008093E10082E08093190110921501809146
:101E5000E1008E7F8093E1008091E2008E7F80938D
:101E6000E2008091E20080618093E20042E360E062
:101E700080E068DE72D1FF91EF91BF91AF919F91A9
:101E80008F917F916F915F914F913F912F910F9023
:101E90000FBE0F901F9018951F93CF93DF93CDB770
:101EA000DEB7AA970FB6F894DEBF0FBECDBFEAE14A
:101EB000F1E08091F100819321E0E232F207C9F76D
:101EC000F6DA8091E80083FF30C180911A01909189
:101ED0001B01953009F483C030F49130A9F168F00A
:101EE000933091F122C1983009F4EFC0993009F490
:101EF000FBC0963009F019C194C0803821F08238B7
:101F000009F013C108C0809116019091170199231F
:101F100089F082600FC080911E018F70873008F0B9
:101F200004C18093E9008091EB0085FB882780F94C
:101F30001092E9009091E800977F9093E8008093D9
:101F4000F1001092F100CCC0282F2D7F09F0EDC0D8
:101F5000882319F0823061F0E8C080911C01813043
:101F600009F0E3C0933009F080E0809317012EC0A0
:101F700080911C0181112AC080911E018F702FEF6A
:101F8000280F263008F0D1C08093E9002091EB00A3
:101F900020FF1CC0933021F48091EB00806214C0BC
:101FA0009091EB0090619093EB0021E030E0A9016B
:101FB00002C0440F551F8A95E2F74093EA00109241
:101FC000EA008091EB0088608093EB001092E900BA
:101FD0008091E800877F8093E800E9DDA6C0811149
:101FE000A4C010911C011F778091E3008078812BA1
:101FF0008093E3008091E800877F8093E800D7DD3D
:102000008091E80080FFFCCF8091E300806880939E
:10201000E300111102C082E001C083E08093190146
:1020200084C08058823008F080C080911C0190915B
:102030001D018C3D53E0950771F583E08A838AE2A8
:1020400089834FB7F894DE01139620E03EE051E219
:10205000E32FF0E050935700E49120FF03C0E29596
:10206000EF703F5FEF708E2F90E0EA3010F0C79670
:1020700001C0C0968D939D932F5F243149F74FBFC8
:102080008091E800877F8093E8006AE270E0CE01EB
:10209000019695DC14C060911E0170911F01AE0184
:1020A0004F5F5F4FB7DBBC01892B09F43EC09091B5
:1020B000E800977F9093E80089819A81E1DC809124
:1020C000E8008B778093E80030C0803871F580910C
:1020D000E800877F8093E800809115018093F100EC
:1020E0008091E8008E7777CF81111FC080911C010D
:1020F00090911D0199270297C4F48091E800877F91
:102100008093E80080911C018093150150DD80913F
:102110001501811106C08091E30087FD02C081E0B6
:1021200001C084E080931901BAD98091E80083FF4F
:102130000AC08091E800877F8093E8008091EB00DF
:1021400080628093EB00AA960FB6F894DEBF0FBEB4
:10215000CDBFDF91CF911F9108950895CF938091C6
:102160001901882399F0C091E900CF709091EC009B
:10217000892F817090FD80E8C82B1092E900809132
:10218000E80083FD89DECF70C093E900CF91089508
:1021900097FB072E16F4009406D077FD08D00BD0DD
:1021A00007FC05D03EF4909581959F4F089570955A
:1021B00061957F4F0895AA1BBB1B51E107C0AA1F61
:1021C000BB1FA617B70710F0A61BB70B881F991FD8
:1021D0005A95A9F780959095BC01CD010895F89482
:0221E000FFCF2F
:00000001FF
